{
  "_format": "hh-sol-artifact-1",
  "contractName": "MultiSigWallet",
  "sourceName": "contracts/MultiSigWallet.sol",
  "abi": [
    {
      "inputs": [
        {
          "internalType": "address[]",
          "name": "_owners",
          "type": "address[]"
        },
        {
          "internalType": "uint256",
          "name": "_quorum",
          "type": "uint256"
        }
      ],
      "stateMutability": "nonpayable",
      "type": "constructor"
    },
    {
      "anonymous": false,
      "inputs": [
        {
          "indexed": false,
          "internalType": "address",
          "name": "_sender",
          "type": "address"
        },
        {
          "indexed": false,
          "internalType": "uint256",
          "name": "_value",
          "type": "uint256"
        },
        {
          "indexed": false,
          "internalType": "string",
          "name": "_message",
          "type": "string"
        }
      ],
      "name": "NewDeposit",
      "type": "event"
    },
    {
      "anonymous": false,
      "inputs": [
        {
          "indexed": false,
          "internalType": "uint256",
          "name": "_oldQuorum",
          "type": "uint256"
        },
        {
          "indexed": false,
          "internalType": "uint256",
          "name": "_newQuorum",
          "type": "uint256"
        },
        {
          "indexed": false,
          "internalType": "address",
          "name": "_sender",
          "type": "address"
        },
        {
          "indexed": false,
          "internalType": "string",
          "name": "_message",
          "type": "string"
        }
      ],
      "name": "NewQuorum",
      "type": "event"
    },
    {
      "anonymous": false,
      "inputs": [
        {
          "indexed": false,
          "internalType": "address",
          "name": "_to",
          "type": "address"
        },
        {
          "indexed": false,
          "internalType": "uint256",
          "name": "_value",
          "type": "uint256"
        },
        {
          "indexed": false,
          "internalType": "address",
          "name": "_sender",
          "type": "address"
        },
        {
          "indexed": false,
          "internalType": "string",
          "name": "_message",
          "type": "string"
        }
      ],
      "name": "NewTransaction",
      "type": "event"
    },
    {
      "anonymous": false,
      "inputs": [
        {
          "indexed": false,
          "internalType": "address",
          "name": "_new",
          "type": "address"
        },
        {
          "indexed": false,
          "internalType": "address",
          "name": "_sender",
          "type": "address"
        },
        {
          "indexed": false,
          "internalType": "string",
          "name": "_message",
          "type": "string"
        }
      ],
      "name": "OwnerAdded",
      "type": "event"
    },
    {
      "anonymous": false,
      "inputs": [
        {
          "indexed": false,
          "internalType": "address",
          "name": "_removed",
          "type": "address"
        },
        {
          "indexed": false,
          "internalType": "address",
          "name": "_sender",
          "type": "address"
        },
        {
          "indexed": false,
          "internalType": "string",
          "name": "_message",
          "type": "string"
        }
      ],
      "name": "OwnerRemoved",
      "type": "event"
    },
    {
      "inputs": [
        {
          "internalType": "uint256",
          "name": "_index",
          "type": "uint256"
        }
      ],
      "name": "addOwnerApproval",
      "outputs": [],
      "stateMutability": "nonpayable",
      "type": "function"
    },
    {
      "inputs": [
        {
          "internalType": "address",
          "name": "_newOwner",
          "type": "address"
        }
      ],
      "name": "addOwnerRequest",
      "outputs": [],
      "stateMutability": "nonpayable",
      "type": "function"
    },
    {
      "inputs": [],
      "name": "getOwnersAddress",
      "outputs": [
        {
          "internalType": "address[]",
          "name": "",
          "type": "address[]"
        }
      ],
      "stateMutability": "view",
      "type": "function"
    },
    {
      "inputs": [
        {
          "internalType": "uint256",
          "name": "",
          "type": "uint256"
        }
      ],
      "name": "owners",
      "outputs": [
        {
          "internalType": "address",
          "name": "",
          "type": "address"
        }
      ],
      "stateMutability": "view",
      "type": "function"
    },
    {
      "inputs": [],
      "name": "pendingAddOwnerData",
      "outputs": [
        {
          "components": [
            {
              "internalType": "address",
              "name": "_add",
              "type": "address"
            },
            {
              "internalType": "uint256",
              "name": "_index",
              "type": "uint256"
            },
            {
              "internalType": "uint256",
              "name": "_signatures",
              "type": "uint256"
            },
            {
              "internalType": "bool",
              "name": "_approved",
              "type": "bool"
            }
          ],
          "internalType": "struct MultiSigWallet.AddOwner[]",
          "name": "",
          "type": "tuple[]"
        }
      ],
      "stateMutability": "view",
      "type": "function"
    },
    {
      "inputs": [],
      "name": "pendingRemoveOwnerData",
      "outputs": [
        {
          "components": [
            {
              "internalType": "address",
              "name": "_remove",
              "type": "address"
            },
            {
              "internalType": "uint256",
              "name": "_index",
              "type": "uint256"
            },
            {
              "internalType": "uint256",
              "name": "_signatures",
              "type": "uint256"
            },
            {
              "internalType": "bool",
              "name": "_approved",
              "type": "bool"
            }
          ],
          "internalType": "struct MultiSigWallet.RemoveOwner[]",
          "name": "",
          "type": "tuple[]"
        }
      ],
      "stateMutability": "view",
      "type": "function"
    },
    {
      "inputs": [],
      "name": "pendingTransactionsData",
      "outputs": [
        {
          "components": [
            {
              "internalType": "address",
              "name": "_to",
              "type": "address"
            },
            {
              "internalType": "uint256",
              "name": "_value",
              "type": "uint256"
            },
            {
              "internalType": "uint256",
              "name": "_index",
              "type": "uint256"
            },
            {
              "internalType": "uint256",
              "name": "_signatures",
              "type": "uint256"
            },
            {
              "internalType": "bool",
              "name": "_approved",
              "type": "bool"
            }
          ],
          "internalType": "struct MultiSigWallet.Transaction[]",
          "name": "",
          "type": "tuple[]"
        }
      ],
      "stateMutability": "view",
      "type": "function"
    },
    {
      "inputs": [],
      "name": "pendingUpdateQuorumData",
      "outputs": [
        {
          "components": [
            {
              "internalType": "uint256",
              "name": "_quorum",
              "type": "uint256"
            },
            {
              "internalType": "uint256",
              "name": "_index",
              "type": "uint256"
            },
            {
              "internalType": "uint256",
              "name": "_signatures",
              "type": "uint256"
            },
            {
              "internalType": "bool",
              "name": "_approved",
              "type": "bool"
            }
          ],
          "internalType": "struct MultiSigWallet.UpdateQuorum[]",
          "name": "",
          "type": "tuple[]"
        }
      ],
      "stateMutability": "view",
      "type": "function"
    },
    {
      "inputs": [],
      "name": "quorum",
      "outputs": [
        {
          "internalType": "uint256",
          "name": "",
          "type": "uint256"
        }
      ],
      "stateMutability": "view",
      "type": "function"
    },
    {
      "inputs": [
        {
          "internalType": "uint256",
          "name": "_index",
          "type": "uint256"
        }
      ],
      "name": "removeOwnerApproval",
      "outputs": [],
      "stateMutability": "nonpayable",
      "type": "function"
    },
    {
      "inputs": [
        {
          "internalType": "address",
          "name": "_remove",
          "type": "address"
        }
      ],
      "name": "removeOwnerRequest",
      "outputs": [],
      "stateMutability": "nonpayable",
      "type": "function"
    },
    {
      "inputs": [],
      "name": "totalOwners",
      "outputs": [
        {
          "internalType": "uint256",
          "name": "",
          "type": "uint256"
        }
      ],
      "stateMutability": "view",
      "type": "function"
    },
    {
      "inputs": [
        {
          "internalType": "uint256",
          "name": "_index",
          "type": "uint256"
        }
      ],
      "name": "transactionApproval",
      "outputs": [],
      "stateMutability": "nonpayable",
      "type": "function"
    },
    {
      "inputs": [
        {
          "internalType": "address",
          "name": "to",
          "type": "address"
        },
        {
          "internalType": "uint256",
          "name": "value",
          "type": "uint256"
        }
      ],
      "name": "transactionRequest",
      "outputs": [],
      "stateMutability": "nonpayable",
      "type": "function"
    },
    {
      "inputs": [
        {
          "internalType": "uint256",
          "name": "_index",
          "type": "uint256"
        }
      ],
      "name": "updateQuorumApproval",
      "outputs": [],
      "stateMutability": "nonpayable",
      "type": "function"
    },
    {
      "inputs": [
        {
          "internalType": "uint256",
          "name": "_newQuorum",
          "type": "uint256"
        }
      ],
      "name": "updateQuorumRequest",
      "outputs": [],
      "stateMutability": "nonpayable",
      "type": "function"
    },
    {
      "stateMutability": "payable",
      "type": "receive"
    }
  ],
  "bytecode": "0x60806040523480156200001157600080fd5b506040516200504d3803806200504d833981810160405281019062000037919062000552565b60008251116200007e576040517f08c379a0000000000000000000000000000000000000000000000000000000008152600401620000759062000702565b60405180910390fd5b8151811115620000c5576040517f08c379a0000000000000000000000000000000000000000000000000000000008152600401620000bc9062000768565b60405180910390fd5b600081116200010b576040517f08c379a0000000000000000000000000000000000000000000000000000000008152600401620001029062000724565b60405180910390fd5b73f8b7c0728e590800919511c58b1c7574644092ac6000806101000a81548173ffffffffffffffffffffffffffffffffffffffff021916908373ffffffffffffffffffffffffffffffffffffffff16021790555060005b82518110156200046657600083828151811062000184576200018362000906565b5b60200260200101519050600760008273ffffffffffffffffffffffffffffffffffffffff1673ffffffffffffffffffffffffffffffffffffffff16815260200190815260200160002060009054906101000a900460ff16156200021e576040517f08c379a000000000000000000000000000000000000000000000000000000000815260040162000215906200078a565b60405180910390fd5b3073ffffffffffffffffffffffffffffffffffffffff168173ffffffffffffffffffffffffffffffffffffffff16141562000290576040517f08c379a0000000000000000000000000000000000000000000000000000000008152600401620002879062000746565b60405180910390fd5b600073ffffffffffffffffffffffffffffffffffffffff168173ffffffffffffffffffffffffffffffffffffffff16141562000303576040517f08c379a0000000000000000000000000000000000000000000000000000000008152600401620002fa90620006e0565b60405180910390fd5b60008054906101000a900473ffffffffffffffffffffffffffffffffffffffff1673ffffffffffffffffffffffffffffffffffffffff16631ac7f98482306040518363ffffffff1660e01b815260040162000360929190620006b3565b600060405180830381600087803b1580156200037b57600080fd5b505af115801562000390573d6000803e3d6000fd5b505050506006819080600181540180825580915050600190039060005260206000200160009091909190916101000a81548173ffffffffffffffffffffffffffffffffffffffff021916908373ffffffffffffffffffffffffffffffffffffffff1602179055506001600760008373ffffffffffffffffffffffffffffffffffffffff1673ffffffffffffffffffffffffffffffffffffffff16815260200190815260200160002060006101000a81548160ff0219169083151502179055505080806200045d9062000889565b91505062000162565b5080600181905550505062000ad9565b60006200048d6200048784620007d5565b620007ac565b90508083825260208201905082856020860282011115620004b357620004b262000969565b5b60005b85811015620004e75781620004cc8882620004f1565b845260208401935060208301925050600181019050620004b6565b5050509392505050565b600081519050620005028162000aa5565b92915050565b600082601f83011262000520576200051f62000964565b5b81516200053284826020860162000476565b91505092915050565b6000815190506200054c8162000abf565b92915050565b600080604083850312156200056c576200056b62000973565b5b600083015167ffffffffffffffff8111156200058d576200058c6200096e565b5b6200059b8582860162000508565b9250506020620005ae858286016200053b565b9150509250929050565b620005c38162000815565b82525050565b6000620005d860188362000804565b9150620005e58262000989565b602082019050919050565b6000620005ff60248362000804565b91506200060c82620009b2565b604082019050919050565b600062000626601e8362000804565b9150620006338262000a01565b602082019050919050565b60006200064d601b8362000804565b91506200065a8262000a2a565b602082019050919050565b60006200067460158362000804565b9150620006818262000a53565b602082019050919050565b60006200069b60188362000804565b9150620006a88262000a7c565b602082019050919050565b6000604082019050620006ca6000830185620005b8565b620006d96020830184620005b8565b9392505050565b60006020820190508181036000830152620006fb81620005c9565b9050919050565b600060208201905081810360008301526200071d81620005f0565b9050919050565b600060208201905081810360008301526200073f8162000617565b9050919050565b6000602082019050818103600083015262000761816200063e565b9050919050565b60006020820190508181036000830152620007838162000665565b9050919050565b60006020820190508181036000830152620007a5816200068c565b9050919050565b6000620007b8620007cb565b9050620007c6828262000853565b919050565b6000604051905090565b600067ffffffffffffffff821115620007f357620007f262000935565b5b602082029050602081019050919050565b600082825260208201905092915050565b6000620008228262000829565b9050919050565b600073ffffffffffffffffffffffffffffffffffffffff82169050919050565b6000819050919050565b6200085e8262000978565b810181811067ffffffffffffffff8211171562000880576200087f62000935565b5b80604052505050565b6000620008968262000849565b91507fffffffffffffffffffffffffffffffffffffffffffffffffffffffffffffffff821415620008cc57620008cb620008d7565b5b600182019050919050565b7f4e487b7100000000000000000000000000000000000000000000000000000000600052601160045260246000fd5b7f4e487b7100000000000000000000000000000000000000000000000000000000600052603260045260246000fd5b7f4e487b7100000000000000000000000000000000000000000000000000000000600052604160045260246000fd5b600080fd5b600080fd5b600080fd5b600080fd5b6000601f19601f8301169050919050565b7f4164647265737320302063616e2774206265206f776e65720000000000000000600082015250565b7f5468657265206e6565647320746f206265206d6f7265207468616e2030206f7760008201527f6e65727300000000000000000000000000000000000000000000000000000000602082015250565b7f51756f72756d206e6565647320746f206265206d6f7265207468616e20300000600082015250565b7f5468697320616464726573732063616e2774206265206f776e65720000000000600082015250565b7f51756f72756d2065786365656473206f776e6572730000000000000000000000600082015250565b7f4164647265737320616c726561647920616e206f776e65720000000000000000600082015250565b62000ab08162000815565b811462000abc57600080fd5b50565b62000aca8162000849565b811462000ad657600080fd5b50565b6145648062000ae96000396000f3fe6080604052600436106100f75760003560e01c80635975d29d1161008a57806383edd9991161005957806383edd99914610344578063d8d1d3691461036f578063d9deecab14610398578063f103bce7146103c357610137565b80635975d29d1461029e5780635e97891d146102c75780636c1da8ce146102f0578063740278091461031957610137565b8063243669ad116100c6578063243669ad146101f85780632c9f5898146102235780633a253cee1461024c57806350791c641461027557610137565b8063025e7c271461013c57806311a0f25b146101795780631703a018146101a45780631eb9f679146101cf57610137565b36610137577fb1c5a3fe57a6af70cad0fcdcf662323c92f318216bd30cbf9607548d64334580333460405161012d929190613ad7565b60405180910390a1005b600080fd5b34801561014857600080fd5b50610163600480360381019061015e91906132b6565b6103ee565b60405161017091906139fa565b60405180910390f35b34801561018557600080fd5b5061018e61042d565b60405161019b9190613b35565b60405180910390f35b3480156101b057600080fd5b506101b9610687565b6040516101c69190613dbd565b60405180910390f35b3480156101db57600080fd5b506101f660048036038101906101f191906132b6565b61068d565b005b34801561020457600080fd5b5061020d6109f3565b60405161021a9190613dbd565b60405180910390f35b34801561022f57600080fd5b5061024a600480360381019061024591906132b6565b610aa3565b005b34801561025857600080fd5b50610273600480360381019061026e9190613249565b610cc0565b005b34801561028157600080fd5b5061029c60048036038101906102979190613249565b61102e565b005b3480156102aa57600080fd5b506102c560048036038101906102c091906132b6565b6113d8565b005b3480156102d357600080fd5b506102ee60048036038101906102e991906132b6565b61174f565b005b3480156102fc57600080fd5b50610317600480360381019061031291906132b6565b611ba4565b005b34801561032557600080fd5b5061032e611f99565b60405161033b9190613b9b565b60405180910390f35b34801561035057600080fd5b506103596121a7565b6040516103669190613b57565b60405180910390f35b34801561037b57600080fd5b5061039660048036038101906103919190613276565b612401565b005b3480156103a457600080fd5b506103ad6126a8565b6040516103ba9190613b13565b60405180910390f35b3480156103cf57600080fd5b506103d861292a565b6040516103e59190613b79565b60405180910390f35b600681815481106103fe57600080fd5b906000526020600020016000915054906101000a900473ffffffffffffffffffffffffffffffffffffffff1681565b6060600080600090505b6006805490508110156104ce573373ffffffffffffffffffffffffffffffffffffffff166006828154811061046f5761046e6140a5565b5b9060005260206000200160009054906101000a900473ffffffffffffffffffffffffffffffffffffffff1673ffffffffffffffffffffffffffffffffffffffff1614156104bb57600191505b80806104c69061402d565b915050610437565b508061050f576040517f08c379a000000000000000000000000000000000000000000000000000000000815260040161050690613c7d565b60405180910390fd5b6000610519612b8e565b90506000815167ffffffffffffffff811115610538576105376140d4565b5b60405190808252806020026020018201604052801561057157816020015b61055e61312e565b8152602001906001900390816105565790505b50905060005b825181101561067d57600f838281518110610595576105946140a5565b5b6020026020010151815481106105ae576105ad6140a5565b5b90600052602060002090600402016040518060800160405290816000820160009054906101000a900473ffffffffffffffffffffffffffffffffffffffff1673ffffffffffffffffffffffffffffffffffffffff1673ffffffffffffffffffffffffffffffffffffffff16815260200160018201548152602001600282015481526020016003820160009054906101000a900460ff16151515158152505082828151811061065f5761065e6140a5565b5b602002602001018190525080806106759061402d565b915050610577565b5080935050505090565b60015481565b600080600090505b60068054905081101561072c573373ffffffffffffffffffffffffffffffffffffffff16600682815481106106cd576106cc6140a5565b5b9060005260206000200160009054906101000a900473ffffffffffffffffffffffffffffffffffffffff1673ffffffffffffffffffffffffffffffffffffffff16141561071957600191505b80806107249061402d565b915050610695565b508061076d576040517f08c379a000000000000000000000000000000000000000000000000000000000815260040161076490613c7d565b60405180910390fd5b6000600d8381548110610783576107826140a5565b5b90600052602060002090600402016000015410156107d6576040517f08c379a00000000000000000000000000000000000000000000000000000000081526004016107cd90613d9d565b60405180910390fd5b60001515600960003373ffffffffffffffffffffffffffffffffffffffff1673ffffffffffffffffffffffffffffffffffffffff168152602001908152602001600020600084815260200190815260200160002060009054906101000a900460ff1615151461087a576040517f08c379a000000000000000000000000000000000000000000000000000000000815260040161087190613cfd565b60405180910390fd5b6000600d83815481106108905761088f6140a5565b5b906000526020600020906004020190508060030160009054906101000a900460ff16156108f2576040517f08c379a00000000000000000000000000000000000000000000000000000000081526004016108e990613c9d565b60405180910390fd5b60018160020160008282546109079190613f5b565b925050819055506001600960003373ffffffffffffffffffffffffffffffffffffffff1673ffffffffffffffffffffffffffffffffffffffff168152602001908152602001600020600085815260200190815260200160002060006101000a81548160ff0219169083151502179055506001548160020154106109ee577f3031a6670c42021cef6321c5bfa45e4a4d94a01ede1401347ae553a6879c0a356001548260000154336040516109bd93929190613dd8565b60405180910390a1806000015460018190555060018160030160006101000a81548160ff0219169083151502179055505b505050565b60008060005b600680549050811015610a9b57600073ffffffffffffffffffffffffffffffffffffffff1660068281548110610a3257610a316140a5565b5b9060005260206000200160009054906101000a900473ffffffffffffffffffffffffffffffffffffffff1673ffffffffffffffffffffffffffffffffffffffff1614610a8857600182610a859190613f5b565b91505b8080610a939061402d565b9150506109f9565b508091505090565b600080600090505b600680549050811015610b42573373ffffffffffffffffffffffffffffffffffffffff1660068281548110610ae357610ae26140a5565b5b9060005260206000200160009054906101000a900473ffffffffffffffffffffffffffffffffffffffff1673ffffffffffffffffffffffffffffffffffffffff161415610b2f57600191505b8080610b3a9061402d565b915050610aab565b5080610b83576040517f08c379a0000000000000000000000000000000000000000000000000000000008152600401610b7a90613c7d565b60405180910390fd5b610b8b6109f3565b821115610bcd576040517f08c379a0000000000000000000000000000000000000000000000000000000008152600401610bc490613c1d565b60405180910390fd5b60008211610c10576040517f08c379a0000000000000000000000000000000000000000000000000000000008152600401610c0790613cdd565b60405180910390fd5b600d604051806080016040528084815260200160035481526020016000815260200160001515815250908060018154018082558091505060019003906000526020600020906004020160009091909190915060008201518160000155602082015181600101556040820151816002015560608201518160030160006101000a81548160ff0219169083151502179055505050600160036000828254610cb59190613f5b565b925050819055505050565b600080600090505b600680549050811015610d5f573373ffffffffffffffffffffffffffffffffffffffff1660068281548110610d0057610cff6140a5565b5b9060005260206000200160009054906101000a900473ffffffffffffffffffffffffffffffffffffffff1673ffffffffffffffffffffffffffffffffffffffff161415610d4c57600191505b8080610d579061402d565b915050610cc8565b5080610da0576040517f08c379a0000000000000000000000000000000000000000000000000000000008152600401610d9790613c7d565b60405180910390fd5b6000806001610dad6109f3565b610db79190613fb1565b11610df7576040517f08c379a0000000000000000000000000000000000000000000000000000000008152600401610dee90613cbd565b60405180910390fd5b6001546001610e046109f3565b610e0e9190613fb1565b1015610e4f576040517f08c379a0000000000000000000000000000000000000000000000000000000008152600401610e4690613d5d565b60405180910390fd5b60005b600680549050811015610ee9578373ffffffffffffffffffffffffffffffffffffffff1660068281548110610e8a57610e896140a5565b5b9060005260206000200160009054906101000a900473ffffffffffffffffffffffffffffffffffffffff1673ffffffffffffffffffffffffffffffffffffffff161415610ed657600191505b8080610ee19061402d565b915050610e52565b5080610f2a576040517f08c379a0000000000000000000000000000000000000000000000000000000008152600401610f2190613bbd565b60405180910390fd5b600e60405180608001604052808573ffffffffffffffffffffffffffffffffffffffff16815260200160045481526020016000815260200160001515815250908060018154018082558091505060019003906000526020600020906004020160009091909190915060008201518160000160006101000a81548173ffffffffffffffffffffffffffffffffffffffff021916908373ffffffffffffffffffffffffffffffffffffffff160217905550602082015181600101556040820151816002015560608201518160030160006101000a81548160ff02191690831515021790555050506001600460008282546110229190613f5b565b92505081905550505050565b600080600090505b6006805490508110156110cd573373ffffffffffffffffffffffffffffffffffffffff166006828154811061106e5761106d6140a5565b5b9060005260206000200160009054906101000a900473ffffffffffffffffffffffffffffffffffffffff1673ffffffffffffffffffffffffffffffffffffffff1614156110ba57600191505b80806110c59061402d565b915050611036565b508061110e576040517f08c379a000000000000000000000000000000000000000000000000000000000815260040161110590613c7d565b60405180910390fd5b600080600090505b6006805490508110156111ad5760068181548110611137576111366140a5565b5b9060005260206000200160009054906101000a900473ffffffffffffffffffffffffffffffffffffffff1673ffffffffffffffffffffffffffffffffffffffff168473ffffffffffffffffffffffffffffffffffffffff16141561119a57600191505b80806111a59061402d565b915050611116565b5060001515811515146111f5576040517f08c379a00000000000000000000000000000000000000000000000000000000081526004016111ec90613c5d565b60405180910390fd5b3073ffffffffffffffffffffffffffffffffffffffff168373ffffffffffffffffffffffffffffffffffffffff161415611264576040517f08c379a000000000000000000000000000000000000000000000000000000000815260040161125b90613c3d565b60405180910390fd5b600073ffffffffffffffffffffffffffffffffffffffff168373ffffffffffffffffffffffffffffffffffffffff1614156112d4576040517f08c379a00000000000000000000000000000000000000000000000000000000081526004016112cb90613bdd565b60405180910390fd5b600f60405180608001604052808573ffffffffffffffffffffffffffffffffffffffff16815260200160055481526020016000815260200160001515815250908060018154018082558091505060019003906000526020600020906004020160009091909190915060008201518160000160006101000a81548173ffffffffffffffffffffffffffffffffffffffff021916908373ffffffffffffffffffffffffffffffffffffffff160217905550602082015181600101556040820151816002015560608201518160030160006101000a81548160ff02191690831515021790555050506001600560008282546113cc9190613f5b565b92505081905550505050565b600080600090505b600680549050811015611477573373ffffffffffffffffffffffffffffffffffffffff1660068281548110611418576114176140a5565b5b9060005260206000200160009054906101000a900473ffffffffffffffffffffffffffffffffffffffff1673ffffffffffffffffffffffffffffffffffffffff16141561146457600191505b808061146f9061402d565b9150506113e0565b50806114b8576040517f08c379a00000000000000000000000000000000000000000000000000000000081526004016114af90613c7d565b60405180910390fd5b60001515600b60003373ffffffffffffffffffffffffffffffffffffffff1673ffffffffffffffffffffffffffffffffffffffff168152602001908152602001600020600084815260200190815260200160002060009054906101000a900460ff1615151461155c576040517f08c379a000000000000000000000000000000000000000000000000000000000815260040161155390613cfd565b60405180910390fd5b6000600f8381548110611572576115716140a5565b5b9060005260206000209060040201905060008160000160009054906101000a900473ffffffffffffffffffffffffffffffffffffffff1690508160030160009054906101000a900460ff16156115fd576040517f08c379a00000000000000000000000000000000000000000000000000000000081526004016115f490613c9d565b60405180910390fd5b60018260020160008282546116129190613f5b565b925050819055506001600b60003373ffffffffffffffffffffffffffffffffffffffff1673ffffffffffffffffffffffffffffffffffffffff168152602001908152602001600020600086815260200190815260200160002060006101000a81548160ff021916908315150217905550600154826002015410611749576006819080600181540180825580915050600190039060005260206000200160009091909190916101000a81548173ffffffffffffffffffffffffffffffffffffffff021916908373ffffffffffffffffffffffffffffffffffffffff1602179055507f33dc0a33e270fac4f7fedf95da9b3785804a3254ca898faf2903b0a71a4463098133604051611723929190613a15565b60405180910390a160018260030160006101000a81548160ff0219169083151502179055505b50505050565b600080600090505b6006805490508110156117ee573373ffffffffffffffffffffffffffffffffffffffff166006828154811061178f5761178e6140a5565b5b9060005260206000200160009054906101000a900473ffffffffffffffffffffffffffffffffffffffff1673ffffffffffffffffffffffffffffffffffffffff1614156117db57600191505b80806117e69061402d565b915050611757565b508061182f576040517f08c379a000000000000000000000000000000000000000000000000000000000815260040161182690613c7d565b60405180910390fd5b6000600c8381548110611845576118446140a5565b5b9060005260206000209060050201600101541015611898576040517f08c379a000000000000000000000000000000000000000000000000000000000815260040161188f90613d9d565b60405180910390fd5b60001515600860003373ffffffffffffffffffffffffffffffffffffffff1673ffffffffffffffffffffffffffffffffffffffff168152602001908152602001600020600084815260200190815260200160002060009054906101000a900460ff1615151461193c576040517f08c379a000000000000000000000000000000000000000000000000000000000815260040161193390613cfd565b60405180910390fd5b6000600c8381548110611952576119516140a5565b5b906000526020600020906005020190508060040160009054906101000a900460ff16156119b4576040517f08c379a00000000000000000000000000000000000000000000000000000000081526004016119ab90613c9d565b60405180910390fd5b60018160030160008282546119c99190613f5b565b925050819055506001600860003373ffffffffffffffffffffffffffffffffffffffff1673ffffffffffffffffffffffffffffffffffffffff168152602001908152602001600020600085815260200190815260200160002060006101000a81548160ff021916908315150217905550600154816003015410611b9f576000808260000160009054906101000a900473ffffffffffffffffffffffffffffffffffffffff1673ffffffffffffffffffffffffffffffffffffffff168360010154604051611a95906139e5565b60006040518083038185875af1925050503d8060008114611ad2576040519150601f19603f3d011682016040523d82523d6000602084013e611ad7565b606091505b509150915081611b1c576040517f08c379a0000000000000000000000000000000000000000000000000000000008152600401611b1390613d1d565b60405180910390fd5b60018360040160006101000a81548160ff0219169083151502179055507fa2c9a9b500ca329e134993c52f9be4904e05ea16f1365e292e40ff2127b4edb68360000160009054906101000a900473ffffffffffffffffffffffffffffffffffffffff16846001015433604051611b9493929190613a8d565b60405180910390a150505b505050565b600080600090505b600680549050811015611c43573373ffffffffffffffffffffffffffffffffffffffff1660068281548110611be457611be36140a5565b5b9060005260206000200160009054906101000a900473ffffffffffffffffffffffffffffffffffffffff1673ffffffffffffffffffffffffffffffffffffffff161415611c3057600191505b8080611c3b9061402d565b915050611bac565b5080611c84576040517f08c379a0000000000000000000000000000000000000000000000000000000008152600401611c7b90613c7d565b60405180910390fd5b60001515600a60003373ffffffffffffffffffffffffffffffffffffffff1673ffffffffffffffffffffffffffffffffffffffff168152602001908152602001600020600084815260200190815260200160002060009054906101000a900460ff16151514611d28576040517f08c379a0000000000000000000000000000000000000000000000000000000008152600401611d1f90613cfd565b60405180910390fd5b6000600e8381548110611d3e57611d3d6140a5565b5b906000526020600020906004020190508060030160009054906101000a900460ff1615611da0576040517f08c379a0000000000000000000000000000000000000000000000000000000008152600401611d9790613c9d565b60405180910390fd5b60008160000160009054906101000a900473ffffffffffffffffffffffffffffffffffffffff1690506001826002016000828254611dde9190613f5b565b925050819055506001600a60003373ffffffffffffffffffffffffffffffffffffffff1673ffffffffffffffffffffffffffffffffffffffff168152602001908152602001600020600086815260200190815260200160002060006101000a81548160ff021916908315150217905550600154826002015410611f9357600080600090505b600680549050811015611ef9578273ffffffffffffffffffffffffffffffffffffffff1660068281548110611e9b57611e9a6140a5565b5b9060005260206000200160009054906101000a900473ffffffffffffffffffffffffffffffffffffffff1673ffffffffffffffffffffffffffffffffffffffff161415611ee6578091505b8080611ef19061402d565b915050611e63565b5060068181548110611f0e57611f0d6140a5565b5b9060005260206000200160006101000a81549073ffffffffffffffffffffffffffffffffffffffff02191690557fb9cea5a75b18758cc00a7a80bfea35ac04eb8076e352f57100e540271fa79ab58233604051611f6c929190613a51565b60405180910390a160018360030160006101000a81548160ff021916908315150217905550505b50505050565b6060600080600090505b60068054905081101561203a573373ffffffffffffffffffffffffffffffffffffffff1660068281548110611fdb57611fda6140a5565b5b9060005260206000200160009054906101000a900473ffffffffffffffffffffffffffffffffffffffff1673ffffffffffffffffffffffffffffffffffffffff16141561202757600191505b80806120329061402d565b915050611fa3565b508061207b576040517f08c379a000000000000000000000000000000000000000000000000000000000815260040161207290613c7d565b60405180910390fd5b6000612085612cf6565b90506000815167ffffffffffffffff8111156120a4576120a36140d4565b5b6040519080825280602002602001820160405280156120dd57816020015b6120ca61316e565b8152602001906001900390816120c25790505b50905060005b825181101561219d57600d838281518110612101576121006140a5565b5b60200260200101518154811061211a576121196140a5565b5b90600052602060002090600402016040518060800160405290816000820154815260200160018201548152602001600282015481526020016003820160009054906101000a900460ff16151515158152505082828151811061217f5761217e6140a5565b5b602002602001018190525080806121959061402d565b9150506120e3565b5080935050505090565b6060600080600090505b600680549050811015612248573373ffffffffffffffffffffffffffffffffffffffff16600682815481106121e9576121e86140a5565b5b9060005260206000200160009054906101000a900473ffffffffffffffffffffffffffffffffffffffff1673ffffffffffffffffffffffffffffffffffffffff16141561223557600191505b80806122409061402d565b9150506121b1565b5080612289576040517f08c379a000000000000000000000000000000000000000000000000000000000815260040161228090613c7d565b60405180910390fd5b6000612293612e5e565b90506000815167ffffffffffffffff8111156122b2576122b16140d4565b5b6040519080825280602002602001820160405280156122eb57816020015b6122d8613198565b8152602001906001900390816122d05790505b50905060005b82518110156123f757600e83828151811061230f5761230e6140a5565b5b602002602001015181548110612328576123276140a5565b5b90600052602060002090600402016040518060800160405290816000820160009054906101000a900473ffffffffffffffffffffffffffffffffffffffff1673ffffffffffffffffffffffffffffffffffffffff1673ffffffffffffffffffffffffffffffffffffffff16815260200160018201548152602001600282015481526020016003820160009054906101000a900460ff1615151515815250508282815181106123d9576123d86140a5565b5b602002602001018190525080806123ef9061402d565b9150506122f1565b5080935050505090565b600080600090505b6006805490508110156124a0573373ffffffffffffffffffffffffffffffffffffffff1660068281548110612441576124406140a5565b5b9060005260206000200160009054906101000a900473ffffffffffffffffffffffffffffffffffffffff1673ffffffffffffffffffffffffffffffffffffffff16141561248d57600191505b80806124989061402d565b915050612409565b50806124e1576040517f08c379a00000000000000000000000000000000000000000000000000000000081526004016124d890613c7d565b60405180910390fd5b81471015612524576040517f08c379a000000000000000000000000000000000000000000000000000000000815260040161251b90613bfd565b60405180910390fd5b600073ffffffffffffffffffffffffffffffffffffffff168373ffffffffffffffffffffffffffffffffffffffff161415612594576040517f08c379a000000000000000000000000000000000000000000000000000000000815260040161258b90613d3d565b60405180910390fd5b600c6040518060a001604052808573ffffffffffffffffffffffffffffffffffffffff16815260200184815260200160025481526020016000815260200160001515815250908060018154018082558091505060019003906000526020600020906005020160009091909190915060008201518160000160006101000a81548173ffffffffffffffffffffffffffffffffffffffff021916908373ffffffffffffffffffffffffffffffffffffffff16021790555060208201518160010155604082015181600201556060820151816003015560808201518160040160006101000a81548160ff021916908315150217905550505060016002600082825461269c9190613f5b565b92505081905550505050565b60606000600680549050116126f2576040517f08c379a00000000000000000000000000000000000000000000000000000000081526004016126e990613d7d565b60405180910390fd5b600080600090505b60068054905081101561279c57600073ffffffffffffffffffffffffffffffffffffffff1660068281548110612733576127326140a5565b5b9060005260206000200160009054906101000a900473ffffffffffffffffffffffffffffffffffffffff1673ffffffffffffffffffffffffffffffffffffffff1614612789576001826127869190613f5b565b91505b80806127949061402d565b9150506126fa565b5060008167ffffffffffffffff8111156127b9576127b86140d4565b5b6040519080825280602002602001820160405280156127e75781602001602082028036833780820191505090505b509050600080600090505b60068054905081101561292057600073ffffffffffffffffffffffffffffffffffffffff166006828154811061282b5761282a6140a5565b5b9060005260206000200160009054906101000a900473ffffffffffffffffffffffffffffffffffffffff1673ffffffffffffffffffffffffffffffffffffffff161461290d5760068181548110612885576128846140a5565b5b9060005260206000200160009054906101000a900473ffffffffffffffffffffffffffffffffffffffff168383815181106128c3576128c26140a5565b5b602002602001019073ffffffffffffffffffffffffffffffffffffffff16908173ffffffffffffffffffffffffffffffffffffffff168152505060018261290a9190613f5b565b91505b80806129189061402d565b9150506127f2565b5081935050505090565b6060600080600090505b6006805490508110156129cb573373ffffffffffffffffffffffffffffffffffffffff166006828154811061296c5761296b6140a5565b5b9060005260206000200160009054906101000a900473ffffffffffffffffffffffffffffffffffffffff1673ffffffffffffffffffffffffffffffffffffffff1614156129b857600191505b80806129c39061402d565b915050612934565b5080612a0c576040517f08c379a0000000000000000000000000000000000000000000000000000000008152600401612a0390613c7d565b60405180910390fd5b6000612a16612fc6565b90506000815167ffffffffffffffff811115612a3557612a346140d4565b5b604051908082528060200260200182016040528015612a6e57816020015b612a5b6131d8565b815260200190600190039081612a535790505b50905060005b8251811015612b8457600c838281518110612a9257612a916140a5565b5b602002602001015181548110612aab57612aaa6140a5565b5b90600052602060002090600502016040518060a00160405290816000820160009054906101000a900473ffffffffffffffffffffffffffffffffffffffff1673ffffffffffffffffffffffffffffffffffffffff1673ffffffffffffffffffffffffffffffffffffffff1681526020016001820154815260200160028201548152602001600382015481526020016004820160009054906101000a900460ff161515151581525050828281518110612b6657612b656140a5565b5b60200260200101819052508080612b7c9061402d565b915050612a74565b5080935050505090565b6060600080600090505b600f80549050811015612c075760001515600f8281548110612bbd57612bbc6140a5565b5b906000526020600020906004020160030160009054906101000a900460ff1615151415612bf457600182612bf19190613f5b565b91505b8080612bff9061402d565b915050612b98565b5060008167ffffffffffffffff811115612c2457612c236140d4565b5b604051908082528060200260200182016040528015612c525781602001602082028036833780820191505090505b509050600080600090505b600f80549050811015612cec5760001515600f8281548110612c8257612c816140a5565b5b906000526020600020906004020160030160009054906101000a900460ff1615151415612cd95780838381518110612cbd57612cbc6140a5565b5b602002602001018181525050600182612cd69190613f5b565b91505b8080612ce49061402d565b915050612c5d565b5081935050505090565b6060600080600090505b600d80549050811015612d6f5760001515600d8281548110612d2557612d246140a5565b5b906000526020600020906004020160030160009054906101000a900460ff1615151415612d5c57600182612d599190613f5b565b91505b8080612d679061402d565b915050612d00565b5060008167ffffffffffffffff811115612d8c57612d8b6140d4565b5b604051908082528060200260200182016040528015612dba5781602001602082028036833780820191505090505b509050600080600090505b600d80549050811015612e545760001515600d8281548110612dea57612de96140a5565b5b906000526020600020906004020160030160009054906101000a900460ff1615151415612e415780838381518110612e2557612e246140a5565b5b602002602001018181525050600182612e3e9190613f5b565b91505b8080612e4c9061402d565b915050612dc5565b5081935050505090565b6060600080600090505b600e80549050811015612ed75760001515600e8281548110612e8d57612e8c6140a5565b5b906000526020600020906004020160030160009054906101000a900460ff1615151415612ec457600182612ec19190613f5b565b91505b8080612ecf9061402d565b915050612e68565b5060008167ffffffffffffffff811115612ef457612ef36140d4565b5b604051908082528060200260200182016040528015612f225781602001602082028036833780820191505090505b509050600080600090505b600e80549050811015612fbc5760001515600e8281548110612f5257612f516140a5565b5b906000526020600020906004020160030160009054906101000a900460ff1615151415612fa95780838381518110612f8d57612f8c6140a5565b5b602002602001018181525050600182612fa69190613f5b565b91505b8080612fb49061402d565b915050612f2d565b5081935050505090565b6060600080600090505b600c8054905081101561303f5760001515600c8281548110612ff557612ff46140a5565b5b906000526020600020906005020160040160009054906101000a900460ff161515141561302c576001826130299190613f5b565b91505b80806130379061402d565b915050612fd0565b5060008167ffffffffffffffff81111561305c5761305b6140d4565b5b60405190808252806020026020018201604052801561308a5781602001602082028036833780820191505090505b509050600080600090505b600c805490508110156131245760001515600c82815481106130ba576130b96140a5565b5b906000526020600020906005020160040160009054906101000a900460ff161515141561311157808383815181106130f5576130f46140a5565b5b60200260200101818152505060018261310e9190613f5b565b91505b808061311c9061402d565b915050613095565b5081935050505090565b6040518060800160405280600073ffffffffffffffffffffffffffffffffffffffff16815260200160008152602001600081526020016000151581525090565b60405180608001604052806000815260200160008152602001600081526020016000151581525090565b6040518060800160405280600073ffffffffffffffffffffffffffffffffffffffff16815260200160008152602001600081526020016000151581525090565b6040518060a00160405280600073ffffffffffffffffffffffffffffffffffffffff1681526020016000815260200160008152602001600081526020016000151581525090565b60008135905061322e81614500565b92915050565b60008135905061324381614517565b92915050565b60006020828403121561325f5761325e614103565b5b600061326d8482850161321f565b91505092915050565b6000806040838503121561328d5761328c614103565b5b600061329b8582860161321f565b92505060206132ac85828601613234565b9150509250929050565b6000602082840312156132cc576132cb614103565b5b60006132da84828501613234565b91505092915050565b60006132ef838361335b565b60208301905092915050565b60006133078383613860565b60808301905092915050565b600061331f83836138b5565b60808301905092915050565b6000613337838361390a565b60a08301905092915050565b600061334f8383613972565b60808301905092915050565b61336481613fe5565b82525050565b61337381613fe5565b82525050565b600061338482613e72565b61338e8185613eea565b935061339983613e22565b8060005b838110156133ca5781516133b188826132e3565b97506133bc83613ea9565b92505060018101905061339d565b5085935050505092915050565b60006133e282613e7d565b6133ec8185613efb565b93506133f783613e32565b8060005b8381101561342857815161340f88826132fb565b975061341a83613eb6565b9250506001810190506133fb565b5085935050505092915050565b600061344082613e88565b61344a8185613f0c565b935061345583613e42565b8060005b8381101561348657815161346d8882613313565b975061347883613ec3565b925050600181019050613459565b5085935050505092915050565b600061349e82613e93565b6134a88185613f1d565b93506134b383613e52565b8060005b838110156134e45781516134cb888261332b565b97506134d683613ed0565b9250506001810190506134b7565b5085935050505092915050565b60006134fc82613e9e565b6135068185613f2e565b935061351183613e62565b8060005b838110156135425781516135298882613343565b975061353483613edd565b925050600181019050613515565b5085935050505092915050565b61355881613ff7565b82525050565b600061356b602183613f4a565b915061357682614108565b604082019050919050565b600061358e601283613f4a565b915061359982614157565b602082019050919050565b60006135b1601983613f4a565b91506135bc82614180565b602082019050919050565b60006135d4600f83613f4a565b91506135df826141a9565b602082019050919050565b60006135f7601083613f4a565b9150613602826141d2565b602082019050919050565b600061361a601b83613f4a565b9150613625826141fb565b602082019050919050565b600061363d601483613f4a565b915061364882614224565b602082019050919050565b6000613660601c83613f4a565b915061366b8261424d565b602082019050919050565b6000613683601b83613f4a565b915061368e82614276565b602082019050919050565b60006136a6601483613f4a565b91506136b18261429f565b602082019050919050565b60006136c9601c83613f4a565b91506136d4826142c8565b602082019050919050565b60006136ec602283613f4a565b91506136f7826142f1565b604082019050919050565b600061370f601d83613f4a565b915061371a82614340565b602082019050919050565b6000613732602383613f4a565b915061373d82614369565b604082019050919050565b6000613755601283613f4a565b9150613760826143b8565b602082019050919050565b6000613778600083613f3f565b9150613783826143e1565b600082019050919050565b600061379b601383613f4a565b91506137a6826143e4565b602082019050919050565b60006137be600d83613f4a565b91506137c98261440d565b602082019050919050565b60006137e1601a83613f4a565b91506137ec82614436565b602082019050919050565b6000613804602983613f4a565b915061380f8261445f565b604082019050919050565b6000613827601a83613f4a565b9150613832826144ae565b602082019050919050565b600061384a601b83613f4a565b9150613855826144d7565b602082019050919050565b608082016000820151613876600085018261335b565b50602082015161388960208501826139c7565b50604082015161389c60408501826139c7565b5060608201516138af606085018261354f565b50505050565b6080820160008201516138cb600085018261335b565b5060208201516138de60208501826139c7565b5060408201516138f160408501826139c7565b506060820151613904606085018261354f565b50505050565b60a082016000820151613920600085018261335b565b50602082015161393360208501826139c7565b50604082015161394660408501826139c7565b50606082015161395960608501826139c7565b50608082015161396c608085018261354f565b50505050565b60808201600082015161398860008501826139c7565b50602082015161399b60208501826139c7565b5060408201516139ae60408501826139c7565b5060608201516139c1606085018261354f565b50505050565b6139d081614023565b82525050565b6139df81614023565b82525050565b60006139f08261376b565b9150819050919050565b6000602082019050613a0f600083018461336a565b92915050565b6000606082019050613a2a600083018561336a565b613a37602083018461336a565b8181036040830152613a48816135c7565b90509392505050565b6000606082019050613a66600083018561336a565b613a73602083018461336a565b8181036040830152613a84816137b1565b90509392505050565b6000608082019050613aa2600083018661336a565b613aaf60208301856139d6565b613abc604083018461336a565b8181036060830152613acd81613630565b9050949350505050565b6000606082019050613aec600083018561336a565b613af960208301846139d6565b8181036040830152613b0a8161378e565b90509392505050565b60006020820190508181036000830152613b2d8184613379565b905092915050565b60006020820190508181036000830152613b4f81846133d7565b905092915050565b60006020820190508181036000830152613b718184613435565b905092915050565b60006020820190508181036000830152613b938184613493565b905092915050565b60006020820190508181036000830152613bb581846134f1565b905092915050565b60006020820190508181036000830152613bd68161355e565b9050919050565b60006020820190508181036000830152613bf6816135a4565b9050919050565b60006020820190508181036000830152613c16816135ea565b9050919050565b60006020820190508181036000830152613c368161360d565b9050919050565b60006020820190508181036000830152613c5681613653565b9050919050565b60006020820190508181036000830152613c7681613676565b9050919050565b60006020820190508181036000830152613c9681613699565b9050919050565b60006020820190508181036000830152613cb6816136bc565b9050919050565b60006020820190508181036000830152613cd6816136df565b9050919050565b60006020820190508181036000830152613cf681613702565b9050919050565b60006020820190508181036000830152613d1681613725565b9050919050565b60006020820190508181036000830152613d3681613748565b9050919050565b60006020820190508181036000830152613d56816137d4565b9050919050565b60006020820190508181036000830152613d76816137f7565b9050919050565b60006020820190508181036000830152613d968161381a565b9050919050565b60006020820190508181036000830152613db68161383d565b9050919050565b6000602082019050613dd260008301846139d6565b92915050565b6000608082019050613ded60008301866139d6565b613dfa60208301856139d6565b613e07604083018461336a565b8181036060830152613e1881613581565b9050949350505050565b6000819050602082019050919050565b6000819050602082019050919050565b6000819050602082019050919050565b6000819050602082019050919050565b6000819050602082019050919050565b600081519050919050565b600081519050919050565b600081519050919050565b600081519050919050565b600081519050919050565b6000602082019050919050565b6000602082019050919050565b6000602082019050919050565b6000602082019050919050565b6000602082019050919050565b600082825260208201905092915050565b600082825260208201905092915050565b600082825260208201905092915050565b600082825260208201905092915050565b600082825260208201905092915050565b600081905092915050565b600082825260208201905092915050565b6000613f6682614023565b9150613f7183614023565b9250827fffffffffffffffffffffffffffffffffffffffffffffffffffffffffffffffff03821115613fa657613fa5614076565b5b828201905092915050565b6000613fbc82614023565b9150613fc783614023565b925082821015613fda57613fd9614076565b5b828203905092915050565b6000613ff082614003565b9050919050565b60008115159050919050565b600073ffffffffffffffffffffffffffffffffffffffff82169050919050565b6000819050919050565b600061403882614023565b91507fffffffffffffffffffffffffffffffffffffffffffffffffffffffffffffffff82141561406b5761406a614076565b5b600182019050919050565b7f4e487b7100000000000000000000000000000000000000000000000000000000600052601160045260246000fd5b7f4e487b7100000000000000000000000000000000000000000000000000000000600052603260045260246000fd5b7f4e487b7100000000000000000000000000000000000000000000000000000000600052604160045260246000fd5b600080fd5b7f4164647265737320746f2072656d6f7665206973206e6f7420616e206f776e6560008201527f7200000000000000000000000000000000000000000000000000000000000000602082015250565b7f51756f72756d20676f7420757064617465640000000000000000000000000000600082015250565b7f4164647265737320302063616e6e6f74206265206f776e657200000000000000600082015250565b7f4e6577206f776e65722061646465640000000000000000000000000000000000600082015250565b7f4e6f7420656e6f7567682066756e647300000000000000000000000000000000600082015250565b7f51756f72756d206578636565647320746f74616c206f776e6572730000000000600082015250565b7f4e6577207472616e73616374696f6e2073656e74000000000000000000000000600082015250565b7f5468697320616464726573732063616e6e6f74206265206f776e657200000000600082015250565b7f4164647265737320697320616c726561647920616e206f776e65720000000000600082015250565b7f596f7520617265206e6f7420616e206f776e6572000000000000000000000000600082015250565b7f5472616e73616374696f6e20616c726561647920617070726f76656400000000600082015250565b7f5468657265206e6565647320746f206265206174206c656173742031206f776e60008201527f6572000000000000000000000000000000000000000000000000000000000000602082015250565b7f596f75206e656564206174206c656173742071756f72756d206f662031000000600082015250565b7f596f7520616c7265616479207369676e65642074686973207472616e7361637460008201527f696f6e0000000000000000000000000000000000000000000000000000000000602082015250565b7f5472616e73616374696f6e206661696c65640000000000000000000000000000600082015250565b50565b7f4e6577206465706f73697420656d697474656400000000000000000000000000600082015250565b7f4f776e65722072656d6f76656400000000000000000000000000000000000000600082015250565b7f5a65726f2061646472657373206e6f7420737570706f72746564000000000000600082015250565b7f5468657265206e6565647320746f206265206d6f7265206f776e65727320746860008201527f616e2071756f72756d0000000000000000000000000000000000000000000000602082015250565b7f30206f776e657273206e6f742076616c69642c204552524f5221000000000000600082015250565b7f5472616e73616374696f6e20646f6573206e6f74206578697374730000000000600082015250565b61450981613fe5565b811461451457600080fd5b50565b61452081614023565b811461452b57600080fd5b5056fea2646970667358221220822d65d4285af0ab6dd32f957a6721fc7ee4603bf1a0cce6fedc52a5da68d4e864736f6c63430008070033",
  "linkReferences": {},
  "deployedLinkReferences": {}
}